{
  "contractName": "Scorecard",
  "abi": [
    {
      "inputs": [],
      "stateMutability": "nonpayable",
      "type": "constructor"
    },
    {
      "anonymous": false,
      "inputs": [
        {
          "indexed": false,
          "internalType": "string",
          "name": "_studentFirstName",
          "type": "string"
        },
        {
          "indexed": false,
          "internalType": "string",
          "name": "_studentLastName",
          "type": "string"
        },
        {
          "indexed": false,
          "internalType": "uint256",
          "name": "_studentId",
          "type": "uint256"
        }
      ],
      "name": "studentAdded",
      "type": "event"
    },
    {
      "anonymous": false,
      "inputs": [
        {
          "indexed": false,
          "internalType": "uint256",
          "name": "_studentId",
          "type": "uint256"
        },
        {
          "indexed": false,
          "internalType": "uint256",
          "name": "_englishMarks",
          "type": "uint256"
        },
        {
          "indexed": false,
          "internalType": "uint256",
          "name": "_mathsMarks",
          "type": "uint256"
        },
        {
          "indexed": false,
          "internalType": "uint256",
          "name": "_scienceMarks",
          "type": "uint256"
        }
      ],
      "name": "studentsScoresRecorded",
      "type": "event"
    },
    {
      "inputs": [],
      "name": "classTeacher",
      "outputs": [
        {
          "internalType": "address",
          "name": "",
          "type": "address"
        }
      ],
      "stateMutability": "view",
      "type": "function"
    },
    {
      "inputs": [
        {
          "internalType": "uint256",
          "name": "",
          "type": "uint256"
        }
      ],
      "name": "scores",
      "outputs": [
        {
          "internalType": "uint256",
          "name": "studentId",
          "type": "uint256"
        },
        {
          "internalType": "uint256",
          "name": "englishMarks",
          "type": "uint256"
        },
        {
          "internalType": "uint256",
          "name": "mathsMarks",
          "type": "uint256"
        },
        {
          "internalType": "uint256",
          "name": "scienceMarks",
          "type": "uint256"
        }
      ],
      "stateMutability": "view",
      "type": "function"
    },
    {
      "inputs": [],
      "name": "studentCount",
      "outputs": [
        {
          "internalType": "uint256",
          "name": "",
          "type": "uint256"
        }
      ],
      "stateMutability": "view",
      "type": "function"
    },
    {
      "inputs": [
        {
          "internalType": "uint256",
          "name": "",
          "type": "uint256"
        }
      ],
      "name": "students",
      "outputs": [
        {
          "internalType": "string",
          "name": "studentFirstName",
          "type": "string"
        },
        {
          "internalType": "string",
          "name": "studentLastName",
          "type": "string"
        },
        {
          "internalType": "uint256",
          "name": "id",
          "type": "uint256"
        }
      ],
      "stateMutability": "view",
      "type": "function"
    },
    {
      "inputs": [
        {
          "internalType": "string",
          "name": "_studentFirstName",
          "type": "string"
        },
        {
          "internalType": "string",
          "name": "_studentLastName",
          "type": "string"
        }
      ],
      "name": "addStudentDetails",
      "outputs": [],
      "stateMutability": "nonpayable",
      "type": "function"
    },
    {
      "inputs": [
        {
          "internalType": "uint256",
          "name": "_studentId",
          "type": "uint256"
        },
        {
          "internalType": "uint256",
          "name": "_englishMarks",
          "type": "uint256"
        },
        {
          "internalType": "uint256",
          "name": "_mathsMarks",
          "type": "uint256"
        },
        {
          "internalType": "uint256",
          "name": "_scienceMarks",
          "type": "uint256"
        }
      ],
      "name": "addStudentScores",
      "outputs": [],
      "stateMutability": "nonpayable",
      "type": "function"
    }
  ],
  "bytecode": "0x60806040526000805534801561001457600080fd5b5033600160006101000a81548173ffffffffffffffffffffffffffffffffffffffff021916908373ffffffffffffffffffffffffffffffffffffffff160217905550610b9d806100656000396000f3fe608060405234801561001057600080fd5b50600436106100625760003560e01c806306ead22e146100675780632ee691a3146100995780634c94ebbb146100cc578063a24232c5146100e8578063be645d0a14610104578063e581f9ee14610122575b600080fd5b610081600480360381019061007c9190610614565b610140565b604051610090939291906106e9565b60405180910390f35b6100b360048036038101906100ae9190610614565b61027a565b6040516100c3949392919061072e565b60405180910390f35b6100e660048036038101906100e19190610773565b6102aa565b005b61010260048036038101906100fd919061090f565b6103bb565b005b61010c6104fb565b60405161011991906109c8565b60405180910390f35b61012a610521565b60405161013791906109e3565b60405180910390f35b600260205280600052604060002060009150905080600001805461016390610a2d565b80601f016020809104026020016040519081016040528092919081815260200182805461018f90610a2d565b80156101dc5780601f106101b1576101008083540402835291602001916101dc565b820191906000526020600020905b8154815290600101906020018083116101bf57829003601f168201915b5050505050908060010180546101f190610a2d565b80601f016020809104026020016040519081016040528092919081815260200182805461021d90610a2d565b801561026a5780601f1061023f5761010080835404028352916020019161026a565b820191906000526020600020905b81548152906001019060200180831161024d57829003601f168201915b5050505050908060020154905083565b60036020528060005260406000206000915090508060000154908060010154908060020154908060030154905084565b338073ffffffffffffffffffffffffffffffffffffffff16600160009054906101000a900473ffffffffffffffffffffffffffffffffffffffff1673ffffffffffffffffffffffffffffffffffffffff161461033b576040517f08c379a000000000000000000000000000000000000000000000000000000000815260040161033290610ad0565b60405180910390fd5b60006003600087815260200190815260200160002090508481600101819055508381600201819055508281600301819055508581600001819055507f6b6eea8de4fcb0705d8249787b94d0fff831e7ccecd2f409f7850ad2c251f9b9868686866040516103ab949392919061072e565b60405180910390a1505050505050565b338073ffffffffffffffffffffffffffffffffffffffff16600160009054906101000a900473ffffffffffffffffffffffffffffffffffffffff1673ffffffffffffffffffffffffffffffffffffffff161461044c576040517f08c379a000000000000000000000000000000000000000000000000000000000815260040161044390610ad0565b60405180910390fd5b60008081548092919061045e90610b1f565b919050555060006002600080548152602001908152602001600020905083816000019080519060200190610493929190610527565b50828160010190805190602001906104ac929190610527565b5060005481600201819055507faee3b08f60bd17d98cf5318d54d8104d3f63cd7878cb5ee81a3ab7d3c8ef1d3d84846000546040516104ed939291906106e9565b60405180910390a150505050565b600160009054906101000a900473ffffffffffffffffffffffffffffffffffffffff1681565b60005481565b82805461053390610a2d565b90600052602060002090601f016020900481019282610555576000855561059c565b82601f1061056e57805160ff191683800117855561059c565b8280016001018555821561059c579182015b8281111561059b578251825591602001919060010190610580565b5b5090506105a991906105ad565b5090565b5b808211156105c65760008160009055506001016105ae565b5090565b6000604051905090565b600080fd5b600080fd5b6000819050919050565b6105f1816105de565b81146105fc57600080fd5b50565b60008135905061060e816105e8565b92915050565b60006020828403121561062a576106296105d4565b5b6000610638848285016105ff565b91505092915050565b600081519050919050565b600082825260208201905092915050565b60005b8381101561067b578082015181840152602081019050610660565b8381111561068a576000848401525b50505050565b6000601f19601f8301169050919050565b60006106ac82610641565b6106b6818561064c565b93506106c681856020860161065d565b6106cf81610690565b840191505092915050565b6106e3816105de565b82525050565b6000606082019050818103600083015261070381866106a1565b9050818103602083015261071781856106a1565b905061072660408301846106da565b949350505050565b600060808201905061074360008301876106da565b61075060208301866106da565b61075d60408301856106da565b61076a60608301846106da565b95945050505050565b6000806000806080858703121561078d5761078c6105d4565b5b600061079b878288016105ff565b94505060206107ac878288016105ff565b93505060406107bd878288016105ff565b92505060606107ce878288016105ff565b91505092959194509250565b600080fd5b600080fd5b7f4e487b7100000000000000000000000000000000000000000000000000000000600052604160045260246000fd5b61081c82610690565b810181811067ffffffffffffffff8211171561083b5761083a6107e4565b5b80604052505050565b600061084e6105ca565b905061085a8282610813565b919050565b600067ffffffffffffffff82111561087a576108796107e4565b5b61088382610690565b9050602081019050919050565b82818337600083830152505050565b60006108b26108ad8461085f565b610844565b9050828152602081018484840111156108ce576108cd6107df565b5b6108d9848285610890565b509392505050565b600082601f8301126108f6576108f56107da565b5b813561090684826020860161089f565b91505092915050565b60008060408385031215610926576109256105d4565b5b600083013567ffffffffffffffff811115610944576109436105d9565b5b610950858286016108e1565b925050602083013567ffffffffffffffff811115610971576109706105d9565b5b61097d858286016108e1565b9150509250929050565b600073ffffffffffffffffffffffffffffffffffffffff82169050919050565b60006109b282610987565b9050919050565b6109c2816109a7565b82525050565b60006020820190506109dd60008301846109b9565b92915050565b60006020820190506109f860008301846106da565b92915050565b7f4e487b7100000000000000000000000000000000000000000000000000000000600052602260045260246000fd5b60006002820490506001821680610a4557607f821691505b602082108103610a5857610a576109fe565b5b50919050565b7f4f6e6c792054686520436c617373205465616368657220476f7420416363657360008201527f7300000000000000000000000000000000000000000000000000000000000000602082015250565b6000610aba60218361064c565b9150610ac582610a5e565b604082019050919050565b60006020820190508181036000830152610ae981610aad565b9050919050565b7f4e487b7100000000000000000000000000000000000000000000000000000000600052601160045260246000fd5b6000610b2a826105de565b91507fffffffffffffffffffffffffffffffffffffffffffffffffffffffffffffffff8203610b5c57610b5b610af0565b5b60018201905091905056fea26469706673582212209d6f0eb00ec17f0190e9fa90910ec6f6eaabe1e0754523c160be40e1f8644be564736f6c634300080d0033",
  "immutableReferences": {},
  "source": "// SPDK-License-Identifier: GPL-3.0\r\n\r\npragma solidity >=0.4.0 <0.9.0;\r\n\r\ncontract Scorecard{\r\n\r\n    uint256 public studentCount = 0;\r\n    address public classTeacher;\r\n\r\n    constructor() public{\r\n        classTeacher = msg.sender;\r\n    }\r\n\r\n    modifier onlyClassTeacher(address _classTeacher) {\r\n        require(classTeacher == _classTeacher, \"Only The Class Teacher Got Access\");\r\n        _;\r\n    }\r\n\r\n    struct StudentDetails {\r\n    string studentFirstName;\r\n    string studentLastName;\r\n    uint256 id;\r\n    } \r\n\r\n    struct Score{\r\n    uint256 studentId;\r\n    uint256 englishMarks;\r\n    uint256 mathsMarks;\r\n    uint256 scienceMarks;\r\n    }\r\n\r\n    mapping(uint => StudentDetails) public students ;\r\n\r\n    mapping(uint => Score) public scores;\r\n\r\n    event studentAdded(string _studentFirstName, string _studentLastName, uint256 _studentId);\r\n\r\n    event studentsScoresRecorded(uint256 _studentId, uint256 _englishMarks, uint256 _mathsMarks, uint256 _scienceMarks);\r\n\r\n    function addStudentDetails (string memory _studentFirstName,\r\n                                 string memory _studentLastName) public onlyClassTeacher(msg.sender){\r\n                                     studentCount++;\r\n                                     StudentDetails storage studentObj = students[studentCount];\r\n                                     studentObj.studentFirstName = _studentFirstName;\r\n                                     studentObj.studentLastName  = _studentLastName;\r\n                                     studentObj.id = studentCount;\r\n                                    emit studentAdded(_studentFirstName, _studentLastName, studentCount);\r\n\r\n                                 }\r\n\r\n                                 function addStudentScores ( uint256 _studentId,\r\n                                                             uint256 _englishMarks,\r\n                                                             uint256 _mathsMarks,\r\n                                                             uint256 _scienceMarks ) public onlyClassTeacher(msg.sender){\r\n\r\n                                                                Score storage ScoreObject = scores[_studentId];\r\n\r\n                                                                ScoreObject.englishMarks  = _englishMarks;\r\n                                                                ScoreObject.mathsMarks    = _mathsMarks;\r\n                                                                ScoreObject.scienceMarks  = _scienceMarks;\r\n                                                                ScoreObject.studentId     = _studentId;\r\n                                                               emit studentsScoresRecorded(_studentId, _englishMarks, _mathsMarks, _scienceMarks); \r\n                                                            }\r\n}\r\n\r\n",
  "sourcePath": "C:\\Users\\Administrator\\Desktop\\Truffle\\contracts\\Scorecard.sol",
  "compiler": {
    "name": "solc",
    "version": "0.8.13+commit.abaa5c0e.Emscripten.clang"
  },
  "schemaVersion": "3.4.6",
  "updatedAt": "2022-04-05T02:59:44.174Z",
  "devdoc": {
    "kind": "dev",
    "methods": {},
    "version": 1
  },
  "userdoc": {
    "kind": "user",
    "methods": {},
    "version": 1
  }
}